{
  "_format": "hh-sol-artifact-1",
  "contractName": "Credential",
  "sourceName": "contracts/Credential.sol",
  "abi": [
    {
      "inputs": [
        {
          "internalType": "address",
          "name": "initialOwner",
          "type": "address"
        }
      ],
      "stateMutability": "nonpayable",
      "type": "constructor"
    },
    {
      "inputs": [
        {
          "internalType": "address",
          "name": "owner",
          "type": "address"
        }
      ],
      "name": "OwnableInvalidOwner",
      "type": "error"
    },
    {
      "inputs": [
        {
          "internalType": "address",
          "name": "account",
          "type": "address"
        }
      ],
      "name": "OwnableUnauthorizedAccount",
      "type": "error"
    },
    {
      "anonymous": false,
      "inputs": [
        {
          "indexed": true,
          "internalType": "bytes32",
          "name": "credentialHash",
          "type": "bytes32"
        },
        {
          "indexed": false,
          "internalType": "string",
          "name": "studentId",
          "type": "string"
        },
        {
          "indexed": true,
          "internalType": "address",
          "name": "issuer",
          "type": "address"
        }
      ],
      "name": "CredentialIssued",
      "type": "event"
    },
    {
      "anonymous": false,
      "inputs": [
        {
          "indexed": true,
          "internalType": "bytes32",
          "name": "credentialHash",
          "type": "bytes32"
        },
        {
          "indexed": false,
          "internalType": "string",
          "name": "reason",
          "type": "string"
        },
        {
          "indexed": true,
          "internalType": "address",
          "name": "revokedBy",
          "type": "address"
        }
      ],
      "name": "CredentialRevoked",
      "type": "event"
    },
    {
      "anonymous": false,
      "inputs": [
        {
          "indexed": true,
          "internalType": "address",
          "name": "previousOwner",
          "type": "address"
        },
        {
          "indexed": true,
          "internalType": "address",
          "name": "newOwner",
          "type": "address"
        }
      ],
      "name": "OwnershipTransferred",
      "type": "event"
    },
    {
      "anonymous": false,
      "inputs": [
        {
          "indexed": false,
          "internalType": "string",
          "name": "studentId",
          "type": "string"
        }
      ],
      "name": "StudentPasswordUpdated",
      "type": "event"
    },
    {
      "anonymous": false,
      "inputs": [
        {
          "indexed": false,
          "internalType": "string",
          "name": "studentId",
          "type": "string"
        },
        {
          "indexed": true,
          "internalType": "address",
          "name": "universityWallet",
          "type": "address"
        }
      ],
      "name": "StudentRegistered",
      "type": "event"
    },
    {
      "anonymous": false,
      "inputs": [
        {
          "indexed": true,
          "internalType": "address",
          "name": "wallet",
          "type": "address"
        },
        {
          "indexed": false,
          "internalType": "string",
          "name": "name",
          "type": "string"
        }
      ],
      "name": "UniversityRegistered",
      "type": "event"
    },
    {
      "anonymous": false,
      "inputs": [
        {
          "indexed": true,
          "internalType": "address",
          "name": "wallet",
          "type": "address"
        }
      ],
      "name": "UniversityRemoved",
      "type": "event"
    },
    {
      "inputs": [],
      "name": "getAllUniversityAddresses",
      "outputs": [
        {
          "internalType": "address[]",
          "name": "",
          "type": "address[]"
        }
      ],
      "stateMutability": "view",
      "type": "function"
    },
    {
      "inputs": [
        {
          "internalType": "bytes32",
          "name": "_credentialHash",
          "type": "bytes32"
        }
      ],
      "name": "getCertificateStatus",
      "outputs": [
        {
          "internalType": "enum Credential.CertificateStatus",
          "name": "",
          "type": "uint8"
        },
        {
          "internalType": "string",
          "name": "",
          "type": "string"
        },
        {
          "internalType": "uint256",
          "name": "",
          "type": "uint256"
        }
      ],
      "stateMutability": "view",
      "type": "function"
    },
    {
      "inputs": [
        {
          "internalType": "bytes32",
          "name": "credentialHash",
          "type": "bytes32"
        }
      ],
      "name": "getCredentialByHash",
      "outputs": [
        {
          "components": [
            {
              "internalType": "string",
              "name": "studentId",
              "type": "string"
            },
            {
              "internalType": "string",
              "name": "name",
              "type": "string"
            },
            {
              "internalType": "string",
              "name": "branch",
              "type": "string"
            },
            {
              "internalType": "string",
              "name": "dept",
              "type": "string"
            },
            {
              "internalType": "string",
              "name": "cgpa",
              "type": "string"
            },
            {
              "internalType": "string",
              "name": "ipfsHash",
              "type": "string"
            },
            {
              "internalType": "string",
              "name": "issuedDate",
              "type": "string"
            },
            {
              "internalType": "address",
              "name": "issuer",
              "type": "address"
            },
            {
              "internalType": "enum Credential.CertificateStatus",
              "name": "status",
              "type": "uint8"
            },
            {
              "internalType": "string",
              "name": "revocationReason",
              "type": "string"
            },
            {
              "internalType": "uint256",
              "name": "revokedAt",
              "type": "uint256"
            }
          ],
          "internalType": "struct Credential.Certificate",
          "name": "",
          "type": "tuple"
        }
      ],
      "stateMutability": "view",
      "type": "function"
    },
    {
      "inputs": [],
      "name": "getIssuedHashes",
      "outputs": [
        {
          "internalType": "bytes32[]",
          "name": "",
          "type": "bytes32[]"
        }
      ],
      "stateMutability": "view",
      "type": "function"
    },
    {
      "inputs": [],
      "name": "getRegisteredStudentIds",
      "outputs": [
        {
          "internalType": "string[]",
          "name": "",
          "type": "string[]"
        }
      ],
      "stateMutability": "view",
      "type": "function"
    },
    {
      "inputs": [
        {
          "internalType": "string",
          "name": "_studentId",
          "type": "string"
        }
      ],
      "name": "getStudent",
      "outputs": [
        {
          "internalType": "string",
          "name": "",
          "type": "string"
        },
        {
          "internalType": "string",
          "name": "",
          "type": "string"
        },
        {
          "internalType": "bool",
          "name": "",
          "type": "bool"
        },
        {
          "internalType": "address",
          "name": "",
          "type": "address"
        }
      ],
      "stateMutability": "view",
      "type": "function"
    },
    {
      "inputs": [
        {
          "internalType": "string",
          "name": "_studentId",
          "type": "string"
        }
      ],
      "name": "getStudentPasswordHash",
      "outputs": [
        {
          "internalType": "bytes32",
          "name": "",
          "type": "bytes32"
        }
      ],
      "stateMutability": "view",
      "type": "function"
    },
    {
      "inputs": [
        {
          "internalType": "address",
          "name": "_wallet",
          "type": "address"
        }
      ],
      "name": "getUniversityByAddress",
      "outputs": [
        {
          "internalType": "string",
          "name": "name",
          "type": "string"
        },
        {
          "internalType": "bool",
          "name": "isRegistered",
          "type": "bool"
        }
      ],
      "stateMutability": "view",
      "type": "function"
    },
    {
      "inputs": [],
      "name": "getUniversityCount",
      "outputs": [
        {
          "internalType": "uint256",
          "name": "",
          "type": "uint256"
        }
      ],
      "stateMutability": "view",
      "type": "function"
    },
    {
      "inputs": [
        {
          "internalType": "address",
          "name": "_university",
          "type": "address"
        }
      ],
      "name": "getUniversityIssuedHashes",
      "outputs": [
        {
          "internalType": "bytes32[]",
          "name": "",
          "type": "bytes32[]"
        }
      ],
      "stateMutability": "view",
      "type": "function"
    },
    {
      "inputs": [
        {
          "internalType": "string",
          "name": "studentId",
          "type": "string"
        },
        {
          "internalType": "string",
          "name": "name",
          "type": "string"
        },
        {
          "internalType": "string",
          "name": "branch",
          "type": "string"
        },
        {
          "internalType": "string",
          "name": "dept",
          "type": "string"
        },
        {
          "internalType": "string",
          "name": "cgpa",
          "type": "string"
        },
        {
          "internalType": "string",
          "name": "_ipfsHash",
          "type": "string"
        },
        {
          "internalType": "string",
          "name": "issuedDate",
          "type": "string"
        }
      ],
      "name": "issueCredential",
      "outputs": [],
      "stateMutability": "nonpayable",
      "type": "function"
    },
    {
      "inputs": [],
      "name": "owner",
      "outputs": [
        {
          "internalType": "address",
          "name": "",
          "type": "address"
        }
      ],
      "stateMutability": "view",
      "type": "function"
    },
    {
      "inputs": [
        {
          "internalType": "string",
          "name": "_studentId",
          "type": "string"
        },
        {
          "internalType": "string",
          "name": "_name",
          "type": "string"
        },
        {
          "internalType": "bytes32",
          "name": "_passwordHash",
          "type": "bytes32"
        }
      ],
      "name": "registerStudent",
      "outputs": [],
      "stateMutability": "nonpayable",
      "type": "function"
    },
    {
      "inputs": [
        {
          "internalType": "address",
          "name": "_wallet",
          "type": "address"
        },
        {
          "internalType": "string",
          "name": "_name",
          "type": "string"
        }
      ],
      "name": "registerUniversity",
      "outputs": [],
      "stateMutability": "nonpayable",
      "type": "function"
    },
    {
      "inputs": [
        {
          "internalType": "address",
          "name": "_wallet",
          "type": "address"
        }
      ],
      "name": "removeUniversity",
      "outputs": [],
      "stateMutability": "nonpayable",
      "type": "function"
    },
    {
      "inputs": [],
      "name": "renounceOwnership",
      "outputs": [],
      "stateMutability": "nonpayable",
      "type": "function"
    },
    {
      "inputs": [
        {
          "internalType": "bytes32",
          "name": "_credentialHash",
          "type": "bytes32"
        },
        {
          "internalType": "string",
          "name": "_reason",
          "type": "string"
        }
      ],
      "name": "revokeCredential",
      "outputs": [],
      "stateMutability": "nonpayable",
      "type": "function"
    },
    {
      "inputs": [
        {
          "internalType": "string",
          "name": "_studentId",
          "type": "string"
        },
        {
          "internalType": "bytes32",
          "name": "_passwordHash",
          "type": "bytes32"
        }
      ],
      "name": "studentLogin",
      "outputs": [
        {
          "internalType": "bool",
          "name": "",
          "type": "bool"
        }
      ],
      "stateMutability": "view",
      "type": "function"
    },
    {
      "inputs": [
        {
          "internalType": "address",
          "name": "newOwner",
          "type": "address"
        }
      ],
      "name": "transferOwnership",
      "outputs": [],
      "stateMutability": "nonpayable",
      "type": "function"
    },
    {
      "inputs": [
        {
          "internalType": "address",
          "name": "",
          "type": "address"
        }
      ],
      "name": "universities",
      "outputs": [
        {
          "internalType": "address",
          "name": "wallet",
          "type": "address"
        },
        {
          "internalType": "string",
          "name": "name",
          "type": "string"
        },
        {
          "internalType": "bool",
          "name": "isRegistered",
          "type": "bool"
        }
      ],
      "stateMutability": "view",
      "type": "function"
    },
    {
      "inputs": [
        {
          "internalType": "uint256",
          "name": "",
          "type": "uint256"
        }
      ],
      "name": "universityAddresses",
      "outputs": [
        {
          "internalType": "address",
          "name": "",
          "type": "address"
        }
      ],
      "stateMutability": "view",
      "type": "function"
    },
    {
      "inputs": [
        {
          "internalType": "string",
          "name": "_studentId",
          "type": "string"
        },
        {
          "internalType": "bytes32",
          "name": "_newPasswordHash",
          "type": "bytes32"
        }
      ],
      "name": "updateStudentPassword",
      "outputs": [],
      "stateMutability": "nonpayable",
      "type": "function"
    }
  ],
  "bytecode": "0x60806040523480156200001157600080fd5b5060405162003cc838038062003cc88339818101604052810190620000379190620001f4565b80600073ffffffffffffffffffffffffffffffffffffffff168173ffffffffffffffffffffffffffffffffffffffff1603620000ad5760006040517f1e4fbdf7000000000000000000000000000000000000000000000000000000008152600401620000a4919062000237565b60405180910390fd5b620000be81620000c660201b60201c565b505062000254565b60008060009054906101000a900473ffffffffffffffffffffffffffffffffffffffff169050816000806101000a81548173ffffffffffffffffffffffffffffffffffffffff021916908373ffffffffffffffffffffffffffffffffffffffff1602179055508173ffffffffffffffffffffffffffffffffffffffff168173ffffffffffffffffffffffffffffffffffffffff167f8be0079c531659141344cd1fd0a4f28419497f9722a3daafe3b4186f6b6457e060405160405180910390a35050565b600080fd5b600073ffffffffffffffffffffffffffffffffffffffff82169050919050565b6000620001bc826200018f565b9050919050565b620001ce81620001af565b8114620001da57600080fd5b50565b600081519050620001ee81620001c3565b92915050565b6000602082840312156200020d576200020c6200018a565b5b60006200021d84828501620001dd565b91505092915050565b6200023181620001af565b82525050565b60006020820190506200024e600083018462000226565b92915050565b613a6480620002646000396000f3fe608060405234801561001057600080fd5b50600436106101425760003560e01c8063b9b3bb36116100b8578063e39b598c1161007c578063e39b598c146103a3578063eadc18e9146103c1578063ed266459146103dd578063ed62b915146103f9578063f099556014610415578063f2fde38b1461044757610142565b8063b9b3bb36146102bf578063cab621d9146102dd578063d02966121461030f578063d460ce0b14610342578063ddb6dbd61461037357610142565b80635acfb6311161010a5780635acfb631146101fd578063715018a61461022d5780638da5cb5b146102375780638f6ea651146102555780639348621b14610273578063ace3d595146102a357610142565b8063142b36991461014757806328f54b2f146101775780633132e0341461019357806334ed2694146101b1578063493814b5146101e1575b600080fd5b610161600480360381019061015c91906124d6565b610463565b60405161016e91906125cb565b60405180910390f35b610191600480360381019061018c91906124d6565b6104fa565b005b61019b610632565b6040516101a89190612606565b60405180910390f35b6101cb60048036038101906101c6919061264d565b61063f565b6040516101d89190612689565b60405180910390f35b6101fb60048036038101906101f69190612816565b61067e565b005b61021760048036038101906102129190612872565b61091d565b60405161022491906128ca565b60405180910390f35b610235610af6565b005b61023f610b0a565b60405161024c9190612689565b60405180910390f35b61025d610b33565b60405161026a91906125cb565b60405180910390f35b61028d600480360381019061028891906128e5565b610b8b565b60405161029a919061295c565b60405180910390f35b6102bd60048036038101906102b89190612977565b610bd8565b005b6102c7610e18565b6040516102d49190612a91565b60405180910390f35b6102f760048036038101906102f29190612ab3565b610ea6565b60405161030693929190612bd6565b60405180910390f35b61032960048036038101906103249190612872565b610f77565b6040516103399493929190612c14565b60405180910390f35b61035c600480360381019061035791906124d6565b611106565b60405161036a929190612c67565b60405180910390f35b61038d60048036038101906103889190612ab3565b6111f8565b60405161039a9190612e1f565b60405180910390f35b6103ab611751565b6040516103b89190612f03565b60405180910390f35b6103db60048036038101906103d69190612f25565b61182a565b005b6103f760048036038101906103f291906128e5565b611aaf565b005b610413600480360381019061040e9190612fb0565b611cbe565b005b61042f600480360381019061042a91906124d6565b6120ee565b60405161043e93929190613116565b60405180910390f35b610461600480360381019061045c91906124d6565b6121cd565b005b6060600760008373ffffffffffffffffffffffffffffffffffffffff1673ffffffffffffffffffffffffffffffffffffffff1681526020019081526020016000208054806020026020016040519081016040528092919081815260200182805480156104ee57602002820191906000526020600020905b8154815260200190600101908083116104da575b50505050509050919050565b610502612253565b600160008273ffffffffffffffffffffffffffffffffffffffff1673ffffffffffffffffffffffffffffffffffffffff16815260200190815260200160002060020160009054906101000a900460ff16610591576040517f08c379a0000000000000000000000000000000000000000000000000000000008152600401610588906131a0565b60405180910390fd5b6000600160008373ffffffffffffffffffffffffffffffffffffffff1673ffffffffffffffffffffffffffffffffffffffff16815260200190815260200160002060020160006101000a81548160ff0219169083151502179055508073ffffffffffffffffffffffffffffffffffffffff167f2ad4ce55dbf197589d24f6a11ebec345d1a50286aae2e4cc6f69c7aad1fadde060405160405180910390a250565b6000600280549050905090565b6002818154811061064f57600080fd5b906000526020600020016000915054906101000a900473ffffffffffffffffffffffffffffffffffffffff1681565b600160003373ffffffffffffffffffffffffffffffffffffffff1673ffffffffffffffffffffffffffffffffffffffff16815260200190815260200160002060020160009054906101000a900460ff1661070d576040517f08c379a00000000000000000000000000000000000000000000000000000000081526004016107049061320c565b60405180910390fd5b600060036000848152602001908152602001600020905060008160000180546107359061325b565b905003610777576040517f08c379a000000000000000000000000000000000000000000000000000000000815260040161076e906132d8565b60405180910390fd5b3373ffffffffffffffffffffffffffffffffffffffff168160070160009054906101000a900473ffffffffffffffffffffffffffffffffffffffff1673ffffffffffffffffffffffffffffffffffffffff1614610809576040517f08c379a00000000000000000000000000000000000000000000000000000000081526004016108009061336a565b60405180910390fd5b6000600181111561081d5761081c612ae0565b5b8160070160149054906101000a900460ff16600181111561084157610840612ae0565b5b14610881576040517f08c379a0000000000000000000000000000000000000000000000000000000008152600401610878906133d6565b60405180910390fd5b60018160070160146101000a81548160ff021916908360018111156108a9576108a8612ae0565b5b0217905550818160080190816108bf91906135a2565b504281600901819055503373ffffffffffffffffffffffffffffffffffffffff16837fb506b5ace193aea33fa649de07990e04e020fca7925a29ed529e28ccb8cc68e0846040516109109190613674565b60405180910390a3505050565b6000600160003373ffffffffffffffffffffffffffffffffffffffff1673ffffffffffffffffffffffffffffffffffffffff16815260200190815260200160002060020160009054906101000a900460ff166109ae576040517f08c379a00000000000000000000000000000000000000000000000000000000081526004016109a59061320c565b60405180910390fd5b60006005836040516109c091906136d2565b908152602001604051809103902060000180546109dc9061325b565b905003610a1e576040517f08c379a0000000000000000000000000000000000000000000000000000000008152600401610a1590613735565b60405180910390fd5b3373ffffffffffffffffffffffffffffffffffffffff16600583604051610a4591906136d2565b908152602001604051809103902060030160019054906101000a900473ffffffffffffffffffffffffffffffffffffffff1673ffffffffffffffffffffffffffffffffffffffff1614610acd576040517f08c379a0000000000000000000000000000000000000000000000000000000008152600401610ac4906137a1565b60405180910390fd5b600582604051610add91906136d2565b9081526020016040518091039020600201549050919050565b610afe612253565b610b0860006122da565b565b60008060009054906101000a900473ffffffffffffffffffffffffffffffffffffffff16905090565b60606004805480602002602001604051908101604052809291908181526020018280548015610b8157602002820191906000526020600020905b815481526020019060010190808311610b6d575b5050505050905090565b600080600584604051610b9e91906136d2565b908152602001604051809103902090508060030160009054906101000a900460ff168015610bcf5750828160020154145b91505092915050565b610be0612253565b600160008373ffffffffffffffffffffffffffffffffffffffff1673ffffffffffffffffffffffffffffffffffffffff16815260200190815260200160002060020160009054906101000a900460ff1615610c70576040517f08c379a0000000000000000000000000000000000000000000000000000000008152600401610c679061380d565b60405180910390fd5b60405180606001604052808373ffffffffffffffffffffffffffffffffffffffff16815260200182815260200160011515815250600160008473ffffffffffffffffffffffffffffffffffffffff1673ffffffffffffffffffffffffffffffffffffffff16815260200190815260200160002060008201518160000160006101000a81548173ffffffffffffffffffffffffffffffffffffffff021916908373ffffffffffffffffffffffffffffffffffffffff1602179055506020820151816001019081610d3f91906135a2565b5060408201518160020160006101000a81548160ff0219169083151502179055509050506002829080600181540180825580915050600190039060005260206000200160009091909190916101000a81548173ffffffffffffffffffffffffffffffffffffffff021916908373ffffffffffffffffffffffffffffffffffffffff1602179055508173ffffffffffffffffffffffffffffffffffffffff167f9e7aff20b8d74f44a6eab16e94b9ff91d18db8a3797b539571a31d90dc530d2382604051610e0c9190613674565b60405180910390a25050565b60606002805480602002602001604051908101604052809291908181526020018280548015610e9c57602002820191906000526020600020905b8160009054906101000a900473ffffffffffffffffffffffffffffffffffffffff1673ffffffffffffffffffffffffffffffffffffffff1681526020019060010190808311610e52575b5050505050905090565b600060606000806003600086815260200190815260200160002090508060070160149054906101000a900460ff16816008018260090154818054610ee99061325b565b80601f0160208091040260200160405190810160405280929190818152602001828054610f159061325b565b8015610f625780601f10610f3757610100808354040283529160200191610f62565b820191906000526020600020905b815481529060010190602001808311610f4557829003601f168201915b50505050509150935093509350509193909250565b6060806000806000600586604051610f8f91906136d2565b9081526020016040518091039020905080600001816001018260030160009054906101000a900460ff168360030160019054906101000a900473ffffffffffffffffffffffffffffffffffffffff16838054610fea9061325b565b80601f01602080910402602001604051908101604052809291908181526020018280546110169061325b565b80156110635780601f1061103857610100808354040283529160200191611063565b820191906000526020600020905b81548152906001019060200180831161104657829003601f168201915b505050505093508280546110769061325b565b80601f01602080910402602001604051908101604052809291908181526020018280546110a29061325b565b80156110ef5780601f106110c4576101008083540402835291602001916110ef565b820191906000526020600020905b8154815290600101906020018083116110d257829003601f168201915b505050505092509450945094509450509193509193565b6060600080600160008573ffffffffffffffffffffffffffffffffffffffff1673ffffffffffffffffffffffffffffffffffffffff1681526020019081526020016000209050806001018160020160009054906101000a900460ff1681805461116e9061325b565b80601f016020809104026020016040519081016040528092919081815260200182805461119a9061325b565b80156111e75780601f106111bc576101008083540402835291602001916111e7565b820191906000526020600020905b8154815290600101906020018083116111ca57829003601f168201915b505050505091509250925050915091565b6112006123e2565b600360008381526020019081526020016000206040518061016001604052908160008201805461122f9061325b565b80601f016020809104026020016040519081016040528092919081815260200182805461125b9061325b565b80156112a85780601f1061127d576101008083540402835291602001916112a8565b820191906000526020600020905b81548152906001019060200180831161128b57829003601f168201915b505050505081526020016001820180546112c19061325b565b80601f01602080910402602001604051908101604052809291908181526020018280546112ed9061325b565b801561133a5780601f1061130f5761010080835404028352916020019161133a565b820191906000526020600020905b81548152906001019060200180831161131d57829003601f168201915b505050505081526020016002820180546113539061325b565b80601f016020809104026020016040519081016040528092919081815260200182805461137f9061325b565b80156113cc5780601f106113a1576101008083540402835291602001916113cc565b820191906000526020600020905b8154815290600101906020018083116113af57829003601f168201915b505050505081526020016003820180546113e59061325b565b80601f01602080910402602001604051908101604052809291908181526020018280546114119061325b565b801561145e5780601f106114335761010080835404028352916020019161145e565b820191906000526020600020905b81548152906001019060200180831161144157829003601f168201915b505050505081526020016004820180546114779061325b565b80601f01602080910402602001604051908101604052809291908181526020018280546114a39061325b565b80156114f05780601f106114c5576101008083540402835291602001916114f0565b820191906000526020600020905b8154815290600101906020018083116114d357829003601f168201915b505050505081526020016005820180546115099061325b565b80601f01602080910402602001604051908101604052809291908181526020018280546115359061325b565b80156115825780601f1061155757610100808354040283529160200191611582565b820191906000526020600020905b81548152906001019060200180831161156557829003601f168201915b5050505050815260200160068201805461159b9061325b565b80601f01602080910402602001604051908101604052809291908181526020018280546115c79061325b565b80156116145780601f106115e957610100808354040283529160200191611614565b820191906000526020600020905b8154815290600101906020018083116115f757829003601f168201915b505050505081526020016007820160009054906101000a900473ffffffffffffffffffffffffffffffffffffffff1673ffffffffffffffffffffffffffffffffffffffff1673ffffffffffffffffffffffffffffffffffffffff1681526020016007820160149054906101000a900460ff16600181111561169857611697612ae0565b5b60018111156116aa576116a9612ae0565b5b81526020016008820180546116be9061325b565b80601f01602080910402602001604051908101604052809291908181526020018280546116ea9061325b565b80156117375780601f1061170c57610100808354040283529160200191611737565b820191906000526020600020905b81548152906001019060200180831161171a57829003601f168201915b505050505081526020016009820154815250509050919050565b60606006805480602002602001604051908101604052809291908181526020016000905b828210156118215783829060005260206000200180546117949061325b565b80601f01602080910402602001604051908101604052809291908181526020018280546117c09061325b565b801561180d5780601f106117e25761010080835404028352916020019161180d565b820191906000526020600020905b8154815290600101906020018083116117f057829003601f168201915b505050505081526020019060010190611775565b50505050905090565b600160003373ffffffffffffffffffffffffffffffffffffffff1673ffffffffffffffffffffffffffffffffffffffff16815260200190815260200160002060020160009054906101000a900460ff166118b9576040517f08c379a00000000000000000000000000000000000000000000000000000000081526004016118b09061320c565b60405180910390fd5b60006005846040516118cb91906136d2565b908152602001604051809103902060000180546118e79061325b565b905014611929576040517f08c379a000000000000000000000000000000000000000000000000000000000815260040161192090613879565b60405180910390fd5b6040518060a001604052808481526020018381526020018281526020016001151581526020013373ffffffffffffffffffffffffffffffffffffffff1681525060058460405161197991906136d2565b9081526020016040518091039020600082015181600001908161199c91906135a2565b5060208201518160010190816119b291906135a2565b506040820151816002015560608201518160030160006101000a81548160ff02191690831515021790555060808201518160030160016101000a81548173ffffffffffffffffffffffffffffffffffffffff021916908373ffffffffffffffffffffffffffffffffffffffff160217905550905050600683908060018154018082558091505060019003906000526020600020016000909190919091509081611a5b91906135a2565b503373ffffffffffffffffffffffffffffffffffffffff167faa541cc9975b48a66ff0fcced1b6a07701b89f4bf70332c0e06f406f61b8e97984604051611aa29190613674565b60405180910390a2505050565b600160003373ffffffffffffffffffffffffffffffffffffffff1673ffffffffffffffffffffffffffffffffffffffff16815260200190815260200160002060020160009054906101000a900460ff16611b3e576040517f08c379a0000000000000000000000000000000000000000000000000000000008152600401611b359061320c565b60405180910390fd5b6000600583604051611b5091906136d2565b90815260200160405180910390206000018054611b6c9061325b565b905003611bae576040517f08c379a0000000000000000000000000000000000000000000000000000000008152600401611ba590613735565b60405180910390fd5b3373ffffffffffffffffffffffffffffffffffffffff16600583604051611bd591906136d2565b908152602001604051809103902060030160019054906101000a900473ffffffffffffffffffffffffffffffffffffffff1673ffffffffffffffffffffffffffffffffffffffff1614611c5d576040517f08c379a0000000000000000000000000000000000000000000000000000000008152600401611c54906137a1565b60405180910390fd5b80600583604051611c6e91906136d2565b9081526020016040518091039020600201819055507fe663e5a0861c91c6e89000a208f27559ca940933bef6d85963dc1f78166ede5d82604051611cb29190613674565b60405180910390a15050565b600160003373ffffffffffffffffffffffffffffffffffffffff1673ffffffffffffffffffffffffffffffffffffffff16815260200190815260200160002060020160009054906101000a900460ff16611d4d576040517f08c379a0000000000000000000000000000000000000000000000000000000008152600401611d449061320c565b60405180910390fd5b600587604051611d5d91906136d2565b908152602001604051809103902060030160009054906101000a900460ff16611dbb576040517f08c379a0000000000000000000000000000000000000000000000000000000008152600401611db2906138e5565b60405180910390fd5b6000611dca888886853361239e565b90506000600360008381526020019081526020016000206000018054611def9061325b565b905014611e31576040517f08c379a0000000000000000000000000000000000000000000000000000000008152600401611e2890613977565b60405180910390fd5b60006040518061016001604052808a81526020018981526020018881526020018781526020018681526020018581526020018481526020013373ffffffffffffffffffffffffffffffffffffffff16815260200160006001811115611e9957611e98612ae0565b5b81526020016040518060200160405280600081525081526020016000815250905080600360008481526020019081526020016000206000820151816000019081611ee391906135a2565b506020820151816001019081611ef991906135a2565b506040820151816002019081611f0f91906135a2565b506060820151816003019081611f2591906135a2565b506080820151816004019081611f3b91906135a2565b5060a0820151816005019081611f5191906135a2565b5060c0820151816006019081611f6791906135a2565b5060e08201518160070160006101000a81548173ffffffffffffffffffffffffffffffffffffffff021916908373ffffffffffffffffffffffffffffffffffffffff1602179055506101008201518160070160146101000a81548160ff02191690836001811115611fdb57611fda612ae0565b5b0217905550610120820151816008019081611ff691906135a2565b5061014082015181600901559050506004829080600181540180825580915050600190039060005260206000200160009091909190915055600760003373ffffffffffffffffffffffffffffffffffffffff1673ffffffffffffffffffffffffffffffffffffffff1681526020019081526020016000208290806001815401808255809150506001900390600052602060002001600090919091909150553373ffffffffffffffffffffffffffffffffffffffff16827f50ad411d685564b5a765d771b08d6783f4ce9357ac4e6569a67f35bbd50523288b6040516120db9190613674565b60405180910390a3505050505050505050565b60016020528060005260406000206000915090508060000160009054906101000a900473ffffffffffffffffffffffffffffffffffffffff16908060010180546121379061325b565b80601f01602080910402602001604051908101604052809291908181526020018280546121639061325b565b80156121b05780601f10612185576101008083540402835291602001916121b0565b820191906000526020600020905b81548152906001019060200180831161219357829003601f168201915b5050505050908060020160009054906101000a900460ff16905083565b6121d5612253565b600073ffffffffffffffffffffffffffffffffffffffff168173ffffffffffffffffffffffffffffffffffffffff16036122475760006040517f1e4fbdf700000000000000000000000000000000000000000000000000000000815260040161223e9190612689565b60405180910390fd5b612250816122da565b50565b61225b6123da565b73ffffffffffffffffffffffffffffffffffffffff16612279610b0a565b73ffffffffffffffffffffffffffffffffffffffff16146122d85761229c6123da565b6040517f118cdaa70000000000000000000000000000000000000000000000000000000081526004016122cf9190612689565b60405180910390fd5b565b60008060009054906101000a900473ffffffffffffffffffffffffffffffffffffffff169050816000806101000a81548173ffffffffffffffffffffffffffffffffffffffff021916908373ffffffffffffffffffffffffffffffffffffffff1602179055508173ffffffffffffffffffffffffffffffffffffffff168173ffffffffffffffffffffffffffffffffffffffff167f8be0079c531659141344cd1fd0a4f28419497f9722a3daafe3b4186f6b6457e060405160405180910390a35050565b600085858585856040516020016123b99594939291906139df565b60405160208183030381529060405280519060200120905095945050505050565b600033905090565b60405180610160016040528060608152602001606081526020016060815260200160608152602001606081526020016060815260200160608152602001600073ffffffffffffffffffffffffffffffffffffffff168152602001600060018111156124505761244f612ae0565b5b815260200160608152602001600081525090565b6000604051905090565b600080fd5b600080fd5b600073ffffffffffffffffffffffffffffffffffffffff82169050919050565b60006124a382612478565b9050919050565b6124b381612498565b81146124be57600080fd5b50565b6000813590506124d0816124aa565b92915050565b6000602082840312156124ec576124eb61246e565b5b60006124fa848285016124c1565b91505092915050565b600081519050919050565b600082825260208201905092915050565b6000819050602082019050919050565b6000819050919050565b6125428161252f565b82525050565b60006125548383612539565b60208301905092915050565b6000602082019050919050565b600061257882612503565b612582818561250e565b935061258d8361251f565b8060005b838110156125be5781516125a58882612548565b97506125b083612560565b925050600181019050612591565b5085935050505092915050565b600060208201905081810360008301526125e5818461256d565b905092915050565b6000819050919050565b612600816125ed565b82525050565b600060208201905061261b60008301846125f7565b92915050565b61262a816125ed565b811461263557600080fd5b50565b60008135905061264781612621565b92915050565b6000602082840312156126635761266261246e565b5b600061267184828501612638565b91505092915050565b61268381612498565b82525050565b600060208201905061269e600083018461267a565b92915050565b6126ad8161252f565b81146126b857600080fd5b50565b6000813590506126ca816126a4565b92915050565b600080fd5b600080fd5b6000601f19601f8301169050919050565b7f4e487b7100000000000000000000000000000000000000000000000000000000600052604160045260246000fd5b612723826126da565b810181811067ffffffffffffffff82111715612742576127416126eb565b5b80604052505050565b6000612755612464565b9050612761828261271a565b919050565b600067ffffffffffffffff821115612781576127806126eb565b5b61278a826126da565b9050602081019050919050565b82818337600083830152505050565b60006127b96127b484612766565b61274b565b9050828152602081018484840111156127d5576127d46126d5565b5b6127e0848285612797565b509392505050565b600082601f8301126127fd576127fc6126d0565b5b813561280d8482602086016127a6565b91505092915050565b6000806040838503121561282d5761282c61246e565b5b600061283b858286016126bb565b925050602083013567ffffffffffffffff81111561285c5761285b612473565b5b612868858286016127e8565b9150509250929050565b6000602082840312156128885761288761246e565b5b600082013567ffffffffffffffff8111156128a6576128a5612473565b5b6128b2848285016127e8565b91505092915050565b6128c48161252f565b82525050565b60006020820190506128df60008301846128bb565b92915050565b600080604083850312156128fc576128fb61246e565b5b600083013567ffffffffffffffff81111561291a57612919612473565b5b612926858286016127e8565b9250506020612937858286016126bb565b9150509250929050565b60008115159050919050565b61295681612941565b82525050565b6000602082019050612971600083018461294d565b92915050565b6000806040838503121561298e5761298d61246e565b5b600061299c858286016124c1565b925050602083013567ffffffffffffffff8111156129bd576129bc612473565b5b6129c9858286016127e8565b9150509250929050565b600081519050919050565b600082825260208201905092915050565b6000819050602082019050919050565b612a0881612498565b82525050565b6000612a1a83836129ff565b60208301905092915050565b6000602082019050919050565b6000612a3e826129d3565b612a4881856129de565b9350612a53836129ef565b8060005b83811015612a84578151612a6b8882612a0e565b9750612a7683612a26565b925050600181019050612a57565b5085935050505092915050565b60006020820190508181036000830152612aab8184612a33565b905092915050565b600060208284031215612ac957612ac861246e565b5b6000612ad7848285016126bb565b91505092915050565b7f4e487b7100000000000000000000000000000000000000000000000000000000600052602160045260246000fd5b60028110612b2057612b1f612ae0565b5b50565b6000819050612b3182612b0f565b919050565b6000612b4182612b23565b9050919050565b612b5181612b36565b82525050565b600081519050919050565b600082825260208201905092915050565b60005b83811015612b91578082015181840152602081019050612b76565b60008484015250505050565b6000612ba882612b57565b612bb28185612b62565b9350612bc2818560208601612b73565b612bcb816126da565b840191505092915050565b6000606082019050612beb6000830186612b48565b8181036020830152612bfd8185612b9d565b9050612c0c60408301846125f7565b949350505050565b60006080820190508181036000830152612c2e8187612b9d565b90508181036020830152612c428186612b9d565b9050612c51604083018561294d565b612c5e606083018461267a565b95945050505050565b60006040820190508181036000830152612c818185612b9d565b9050612c90602083018461294d565b9392505050565b600082825260208201905092915050565b6000612cb382612b57565b612cbd8185612c97565b9350612ccd818560208601612b73565b612cd6816126da565b840191505092915050565b612cea81612b36565b82525050565b612cf9816125ed565b82525050565b6000610160830160008301518482036000860152612d1d8282612ca8565b91505060208301518482036020860152612d378282612ca8565b91505060408301518482036040860152612d518282612ca8565b91505060608301518482036060860152612d6b8282612ca8565b91505060808301518482036080860152612d858282612ca8565b91505060a083015184820360a0860152612d9f8282612ca8565b91505060c083015184820360c0860152612db98282612ca8565b91505060e0830151612dce60e08601826129ff565b50610100830151612de3610100860182612ce1565b50610120830151848203610120860152612dfd8282612ca8565b915050610140830151612e14610140860182612cf0565b508091505092915050565b60006020820190508181036000830152612e398184612cff565b905092915050565b600081519050919050565b600082825260208201905092915050565b6000819050602082019050919050565b6000612e798383612ca8565b905092915050565b6000602082019050919050565b6000612e9982612e41565b612ea38185612e4c565b935083602082028501612eb585612e5d565b8060005b85811015612ef15784840389528151612ed28582612e6d565b9450612edd83612e81565b925060208a01995050600181019050612eb9565b50829750879550505050505092915050565b60006020820190508181036000830152612f1d8184612e8e565b905092915050565b600080600060608486031215612f3e57612f3d61246e565b5b600084013567ffffffffffffffff811115612f5c57612f5b612473565b5b612f68868287016127e8565b935050602084013567ffffffffffffffff811115612f8957612f88612473565b5b612f95868287016127e8565b9250506040612fa6868287016126bb565b9150509250925092565b600080600080600080600060e0888a031215612fcf57612fce61246e565b5b600088013567ffffffffffffffff811115612fed57612fec612473565b5b612ff98a828b016127e8565b975050602088013567ffffffffffffffff81111561301a57613019612473565b5b6130268a828b016127e8565b965050604088013567ffffffffffffffff81111561304757613046612473565b5b6130538a828b016127e8565b955050606088013567ffffffffffffffff81111561307457613073612473565b5b6130808a828b016127e8565b945050608088013567ffffffffffffffff8111156130a1576130a0612473565b5b6130ad8a828b016127e8565b93505060a088013567ffffffffffffffff8111156130ce576130cd612473565b5b6130da8a828b016127e8565b92505060c088013567ffffffffffffffff8111156130fb576130fa612473565b5b6131078a828b016127e8565b91505092959891949750929550565b600060608201905061312b600083018661267a565b818103602083015261313d8185612b9d565b905061314c604083018461294d565b949350505050565b7f556e6976657273697479206e6f7420666f756e642e0000000000000000000000600082015250565b600061318a601583612b62565b915061319582613154565b602082019050919050565b600060208201905081810360008301526131b98161317d565b9050919050565b7f4e6f7420616e20617574686f72697a656420756e697665727369747900000000600082015250565b60006131f6601c83612b62565b9150613201826131c0565b602082019050919050565b60006020820190508181036000830152613225816131e9565b9050919050565b7f4e487b7100000000000000000000000000000000000000000000000000000000600052602260045260246000fd5b6000600282049050600182168061327357607f821691505b6020821081036132865761328561322c565b5b50919050565b7f43726564656e7469616c206e6f7420666f756e642e0000000000000000000000600082015250565b60006132c2601583612b62565b91506132cd8261328c565b602082019050919050565b600060208201905081810360008301526132f1816132b5565b9050919050565b7f4f6e6c79207468652069737375696e6720756e69766572736974792063616e2060008201527f7265766f6b652e00000000000000000000000000000000000000000000000000602082015250565b6000613354602783612b62565b915061335f826132f8565b604082019050919050565b6000602082019050818103600083015261338381613347565b9050919050565b7f43726564656e7469616c20697320616c7265616479207265766f6b65642e0000600082015250565b60006133c0601e83612b62565b91506133cb8261338a565b602082019050919050565b600060208201905081810360008301526133ef816133b3565b9050919050565b60008190508160005260206000209050919050565b60006020601f8301049050919050565b600082821b905092915050565b6000600883026134587fffffffffffffffffffffffffffffffffffffffffffffffffffffffffffffffff8261341b565b613462868361341b565b95508019841693508086168417925050509392505050565b6000819050919050565b600061349f61349a613495846125ed565b61347a565b6125ed565b9050919050565b6000819050919050565b6134b983613484565b6134cd6134c5826134a6565b848454613428565b825550505050565b600090565b6134e26134d5565b6134ed8184846134b0565b505050565b5b81811015613511576135066000826134da565b6001810190506134f3565b5050565b601f82111561355657613527816133f6565b6135308461340b565b8101602085101561353f578190505b61355361354b8561340b565b8301826134f2565b50505b505050565b600082821c905092915050565b60006135796000198460080261355b565b1980831691505092915050565b60006135928383613568565b9150826002028217905092915050565b6135ab82612b57565b67ffffffffffffffff8111156135c4576135c36126eb565b5b6135ce825461325b565b6135d9828285613515565b600060209050601f83116001811461360c57600084156135fa578287015190505b6136048582613586565b86555061366c565b601f19841661361a866133f6565b60005b828110156136425784890151825560018201915060208501945060208101905061361d565b8683101561365f578489015161365b601f891682613568565b8355505b6001600288020188555050505b505050505050565b6000602082019050818103600083015261368e8184612b9d565b905092915050565b600081905092915050565b60006136ac82612b57565b6136b68185613696565b93506136c6818560208601612b73565b80840191505092915050565b60006136de82846136a1565b915081905092915050565b7f53747564656e74206e6f7420666f756e642e0000000000000000000000000000600082015250565b600061371f601283612b62565b915061372a826136e9565b602082019050919050565b6000602082019050818103600083015261374e81613712565b9050919050565b7f4e6f7420746865207265676973746572696e6720756e69766572736974792e00600082015250565b600061378b601f83612b62565b915061379682613755565b602082019050919050565b600060208201905081810360008301526137ba8161377e565b9050919050565b7f556e697665727369747920616c726561647920726567697374657265642e0000600082015250565b60006137f7601e83612b62565b9150613802826137c1565b602082019050919050565b60006020820190508181036000830152613826816137ea565b9050919050565b7f53747564656e7420616c726561647920726567697374657265642e0000000000600082015250565b6000613863601b83612b62565b915061386e8261382d565b602082019050919050565b6000602082019050818103600083015261389281613856565b9050919050565b7f53747564656e74206973206e6f7420726567697374657265642e000000000000600082015250565b60006138cf601a83612b62565b91506138da82613899565b602082019050919050565b600060208201905081810360008301526138fe816138c2565b9050919050565b7f43726564656e7469616c20776974682074686973206861736820616c7265616460008201527f79206578697374732e0000000000000000000000000000000000000000000000602082015250565b6000613961602983612b62565b915061396c82613905565b604082019050919050565b6000602082019050818103600083015261399081613954565b9050919050565b60008160601b9050919050565b60006139af82613997565b9050919050565b60006139c1826139a4565b9050919050565b6139d96139d482612498565b6139b6565b82525050565b60006139eb82886136a1565b91506139f782876136a1565b9150613a0382866136a1565b9150613a0f82856136a1565b9150613a1b82846139c8565b601482019150819050969550505050505056fea26469706673582212205f639f56130b8903e12e45af3acfb692c73d847d04c62daf2331aebe7d7dbaa464736f6c63430008140033",
  "linkReferences": {},
  "deployedLinkReferences": {}
}